:020000040800F2
:1000000090060020210C0008A3010008A5010008AB
:10001000A9010008AD010008B101000800000000BE
:10002000000000000000000000000000B501000812
:10003000B701000800000000B9010008BB0100087A
:100040003B0C00083B0C00083B0C00083B0C000874
:100050003B0C00083B0C00083B0C00083B0C000864
:100060003B0C00083B0C00083B0C00083B0C000854
:100070003B0C00083B0C00083B0C00083B0C000844
:100080003B0C00083B0C00083B0C00083B0C000834
:100090003B0C00083B0C00083B0C00083B0C000824
:1000A0003B0C00083B0C00083B0C00083B0C000814
:1000B0003B0C00083B0C00083B0C00083B0C000804
:1000C0003B0C00083B0C00083B0C00083B0C0008F4
:1000D0003B0C00083B0C00083B0C00083B0C0008E4
:1000E0003B0C00083B0C00083B0C000800F002F839
:1000F00000F048F80AA090E8000C82448344AAF17A
:100100000107DA4501D100F03DF8AFF2090EBAE877
:100110000F0013F0010F18BFFB1A43F0010318473B
:1001200094230000B4230000103A24BF78C878C19B
:10013000FAD8520724BF30C830C144BF04680C60ED
:10014000704700000023002400250026103A28BF35
:1001500078C1FBD8520728BF30C148BF0B60704739
:10016000642902F05B80002070471FB502F096F80A
:1001700004000020002102F087F9401C60601FBDD0
:1001800010B510BD02F04AF91146FFF7EEFF00F07E
:1001900005F902F068F903B4FFF7F2FF03BC02F0BF
:1001A0006BF9704700BFFEE700BFFEE700BFFEE748
:1001B00000BFFEE770477047704770470CB50020DE
:1001C000019000906C48006840F480306A490860F3
:1001D00000BF6948006800F4003000900198401C9E
:1001E0000190009818B90198B0F5A06FF1D162485C
:1001F000006800F4003010B10120009001E0002000
:1002000000900098012843D15C48006840F010003D
:100210005A4908600846006820F003000860084654
:10022000006840F002000860534840685249486046
:100230000846406848600846406840F4806048606E
:100240000846406820F47C1048600846406840F446
:10025000E81048600846006840F08070086000BF01
:100260004548006800F000700028F9D04248406816
:1002700020F00300404948600846406840F0020012
:10028000486000BF3C48406800F00C000828F9D1E5
:100290000CBD10B5FFF792FF10BD10B536480068D1
:1002A00040F001003449086008464068344908407D
:1002B0003149486008460068324908402E490860C4
:1002C0000846006820F4802008600846406820F452
:1002D000FE0048604FF41F008860FFF7DAFF4FF020
:1002E00000602949086010BD10B5002100200022DF
:1002F000214B5B6803F00C0121B1042906D00829C9
:1003000028D107E0214B224C236027E01F4B204CD3
:10031000236023E0184B5B6803F47010164B5B6896
:1003200003F48032022303EB904022B9194B43437C
:10033000174C23600DE0104B5B6803F4003323B1CE
:10034000144B4343124C236003E0104B4343104CC7
:10035000236003E00D4B0E4C236000BF00BF064B33
:100360005B68C3F303130C4CE15C094B1B68CB4087
:10037000074C236010BD0000001002400020024026
:100380000000FFF8FFFFF6FE08ED00E000127A0023
:100390000000002000093D000400002088B0012179
:1003A000102000F0CBFD10208DF81F004002ADF8AA
:1003B0001C0003208DF81E0007A92C4800F082FEC7
:1003C00000F08CF800F050FA00F048FB00210846DD
:1003D00000F000FB26A000F036FB0121002000F019
:1003E000F9FA27A000F02FFB3EE001A800F04FFB38
:1003F000D0B19DF8042025A102A801F0C7FE00217C
:10040000084600F0E7FA02A800F01DFB9DF8062060
:1004100023A102A801F0BAFE0121002000F0DAFABF
:1004200002A800F010FB0DE00021084600F0D2FA0F
:1004300020A000F008FB0121002000F0CBFA22A050
:1004400000F001FB4FF40051084800F0E8FE4FF4C3
:10045000FA7000F070F84FF40051044800F0E1FE2B
:100460004FF4FA7000F067F8BFE700000010014099
:1004700053544D3332204C43443136303200000067
:1004800053544D333220444854313100446F20617D
:100490006D3A20256420202020202020000000002C
:1004A0004E6869657420646F3A20256420202020FE
:1004B0000000000053544D3332202D204C43443172
:1004C000363032200000000044485431313A204593
:1004D00052524F5220202020000000000EB5012172
:1004E000084600F038FD0020ADF80600ADF8020027
:1004F0004FF6FE70ADF804000720ADF800000020B4
:100500008DF8080069464FF0804000F0FDFF0121A2
:10051000880701F055FB0EBD10B5044600214FF0D1
:10052000804001F0E1FD00BF4FF0804001F0FFFD91
:10053000A042F9D310BD70B50446002504E04FF485
:100540007A70FFF7E9FF6D1CA542F8D370BD00007B
:1005500070B505460C460420FE49C8700C80032087
:100560008870284600F0AEFD70BD70B505460C469B
:100570001020F849C8700C8003208870284600F0CD
:10058000A1FD70BD70B504460D4600224FF4806198
:10059000F14800F048FE0DB1012000E000200246C5
:1005A0004FF40071EC4800F03EFE0120FFF7B4FF6D
:1005B0004FF40041E848FFF7D8FF4FF48041E64888
:1005C000FFF7D3FF4FF40051E348FFF7CEFF4FF49E
:1005D0008051E148FFF7C9FF0122D102DE4800F057
:1005E00022FEC4F3C0124FF40041DB4800F01BFEB2
:1005F000C4F380124FF48041D74800F014FEC4F3D6
:1006000040124FF40051D44800F00DFEC4F3001224
:100610004FF48051D04800F006FE0120FFF77CFF28
:1006200000224FF40061CC4800F0FDFD0120FFF7EF
:1006300073FF0122D102C84800F0F5FDC4F3C002E7
:100640004FF40041C44800F0EEFDC4F380024FF4C3
:100650008041C14800F0E7FDC4F340024FF400516F
:10066000BD4800F0E0FD04F001024FF48051BA48AB
:1006700000F0D9FD0120FFF74FFF00224FF4006189
:10068000B54800F0D0FD0120FFF746FF70BD70B502
:1006900004460D4600224FF48061AF4800F0C3FDD0
:1006A0000DB1012000E0002002464FF40071AA487D
:1006B00000F0B9FD0120FFF72FFF4FF40041A648DD
:1006C000FFF753FF4FF48041A348FFF74EFF4FF46D
:1006D0000051A148FFF749FF4FF480519E48FFF7B2
:1006E00044FF0122D1029C4800F09DFDC4F3C012DA
:1006F0004FF40041984800F096FDC4F380124FF487
:100700008041954800F08FFDC4F340124FF4005132
:10071000914800F088FDC4F300124FF480518E48D8
:1007200000F081FD0120FFF7F7FE00224FF4006189
:10073000894800F078FD0120FFF7EEFE70BD70B52E
:100740000546002401229102834800F06CFD0DB1A2
:10075000012000E0002002464FF400717E4800F0C6
:1007600062FD0120FFF7D8FE4FF400417A48FFF701
:10077000EFFE4FF480417848FFF7EAFE4FF4005156
:100780007548FFF7E5FE4FF480517348FFF7E0FE30
:100790000122D102704800F046FD0120FFF7BCFEA7
:1007A0004FF400416C4800F020FD08B144F0800493
:1007B0004FF48041684800F018FD08B144F040044F
:1007C0004FF40051644800F010FD08B144F02004DB
:1007D0004FF48051604800F008FD08B144F0100467
:1007E00000224FF400615C4800F01DFD0120FFF77E
:1007F00093FE0122D102584800F015FD0120FFF7B9
:100800008BFE4FF40041544800F0EFFC08B144F077
:1008100008044FF48041504800F0E7FC08B144F070
:1008200004044FF400514C4800F0DFFC08B144F0E0
:1008300002044FF48051484800F0D7FC08B144F05E
:10084000010400224FF40061434800F0ECFC012059
:10085000FFF762FE204670BD10B50020FFF76FFF66
:10086000044604F0800010BD10B50F20FFF763FEB2
:100870000121082000F062FB0121082000F05EFB4E
:100880000121082000F05AFB0121082000F056FB4E
:100890000121082000F052FB0121082000F04EFB4E
:1008A0000121082000F04AFB00224FF400712A4881
:1008B00000F0B9FC00224FF48061274800F0B3FC3F
:1008C00000224FF40061244800F0ADFC00224FF4F8
:1008D0008051214800F0A7FC00224FF400511E482F
:1008E00000F0A1FC00224FF480411B4800F09BFC6B
:1008F00000224FF40041184800F095FC4FF40071BD
:100900001548FFF732FE4FF480611348FFF72DFEC4
:100910004FF400611048FFF728FE4FF480510E4855
:10092000FFF723FE4FF400510B48FFF71EFE4FF474
:1009300080410948FFF719FE4FF400410648FFF7D0
:1009400014FE00213020FFF7A2FE0520FFF7F3FD83
:10095000002103E014000020000C01403020FFF7CC
:1009600096FE6420FFF7D8FD00213020FFF78FFEB0
:1009700000212020FFF78BFE00BFFFF76DFF00284E
:10098000FBD100212820FFF7FDFD00BFFFF764FF2A
:100990000028FBD100210820FFF7F4FD00BFFFF77E
:1009A0005BFF0028FBD100210120FFF7EBFD00BF1A
:1009B000FFF752FF0028FBD100210620FFF7E2FDE0
:1009C00000BFFFF749FF0028FBD100210E20FFF7F1
:1009D000D9FD10BD70B505460E460EB1402400E0AD
:1009E00000246019C4B200BFFFF736FF0028FBD116
:1009F00044F080000021FFF7C5FD70BD10B504462E
:100A00000C2C08D100BFFFF727FF0028FBD10121E4
:100A1000FFF7B8FD16E00A2C04D101210020FFF7F2
:100A2000D9FF0FE001F0AAFB0068005D00F03E0076
:100A300040B100BFFFF710FF0028FBD10121204685
:100A4000FFF7A0FD10BD10B5044603E014F8010B3C
:100A5000FFF7D4FF20780028F8D110BD08B5012198
:100A6000082000F06BFA14208DF803004FF480701A
:100A7000ADF8000003208DF802006946674800F0D9
:100A800021FB4FF48071654800F0C9FB08BD2DE9DA
:100A9000FC4107464FF48071604800F0C2FB14200F
:100AA000FFF749FD4FF480715C4800F0B8FB00216E
:100AB0004FF0804001F018FB06E04FF4807157487A
:100AC00000F093FB00B905E04FF0804001F02FFBF0
:100AD0002828F2DB00BF4FF0804001F028FB0446DD
:100AE000282C01DA142C02DC0020BDE8FC81002156
:100AF0004FF0804001F0F8FA06E04FF4807147486B
:100B000000F073FB00B105E04FF0804001F00FFBF7
:100B10005A28F2DB00BF4FF0804001F008FB04468A
:100B20005A2C01DA462C01DC0020DEE700214FF0D0
:100B3000804001F0D9FA06E04FF48071374800F0A8
:100B400054FB00B905E04FF0804001F0F0FA5F2857
:100B5000F2DB00BF4FF0804001F0E9FA04465F2C61
:100B600001DA4B2C01DC0020BFE7002549E000261C
:100B700043E000214FF0804001F0B6FA06E04FF468
:100B80008071264800F031FB00B105E04FF0804055
:100B900001F0CDFA4128F2DB00BF00214FF0804088
:100BA00001F0A2FA06E04FF480711C4800F01DFB32
:100BB00000B905E04FF0804001F0B9FA5028F2DBAF
:100BC00000BF4FF0804001F0B2FA04461DF8050066
:100BD0004006000E0DF805002D2C06DD1DF8050061
:100BE00040F001000DF8050005E01DF8050020F0BB
:100BF00001000DF80500701CC6B2082EB9DB681C98
:100C0000C5B2042DB3DB002604E01DF80600B8557C
:100C1000701CC6B2042EF8DB012066E7000C014010
:100C20000948804709480047FEE7FEE7FEE7FEE780
:100C3000FEE7FEE7FEE7FEE7FEE7FEE704480549BC
:100C4000054A064B704700009B020008ED000008B3
:100C500090000020900600209002002090020020CA
:100C6000DF48006840F00100DD4908600846406840
:100C7000DC490840DA49486008460068DA4908401B
:100C8000D74908600846006820F4802008600846BC
:100C9000406820F4FE0048604FF41F0088607047F1
:100CA000CF49096821F48031CD4A116011460968A5
:100CB00021F480211160B0F5803F03D0B0F5802F82
:100CC0000ED106E0C649096841F48031C44A11607A
:100CD00007E0C349096841F4A021C14A116000E05E
:100CE00000BF00BF704710B501460022002300205E
:100CF0004A11012A02D1BA4C236806E0022A02D125
:100D0000B74C236A01E0B64C636A01F01F0201246C
:100D100094401C400CB1012000E0002010BD38B50B
:100D2000002000900024002500BF3120FFF7DBFFEA
:100D300005460098401C00900098B0F5A06F01D0C7
:100D4000002DF2D03120FFF7CEFF08B1012400E0E2
:100D50000024204638BD01460020A14A106820F03A
:100D6000F80040EAC10010607047A0490860704771
:100D7000024600209A4B586820F47C1042EA010396
:100D80001843974B5860704798490866704701466A
:100D90000020934A506820F00300084350607047D9
:100DA0008F48406800F00C007047014600208C4AD4
:100DB000506820F0F0000843506070470146002062
:100DC000874A506820F4E06008435060704701464D
:100DD0000020834A506820F4605040EAC10050600F
:100DE000704729B17E4A527A02437D4B5A7204E021
:100DF0007B4A527A82437A4B5A7270477B49D83188
:100E00000860704701460020754A506820F4404051
:100E10000843506070470021714A20321170704AB7
:100E200082F82010012802D004280AD104E0012110
:100E30006B4A2032117005E00521694A2032117099
:100E400000E000BF00BF704769490860704764490F
:100E5000096A0143624A1162704765494439086072
:100E6000704730B500210022002400235C4D6D68DE
:100E700005F00C0121B1042905D0082923D105E092
:100E80005C4D056022E05B4D05601FE0544D6D68D0
:100E900005F47012524D6D6805F48034022505EB9F
:100EA00092421CB9544D554305600BE04C4D6D68A2
:100EB00005F400351DB1504D5543056002E04D4D20
:100EC0005543056002E04B4D056000BF00BF444D37
:100ED0006D6805F0F0010909484D6B5C0568DD405F
:100EE00045603F4D6D6805F4E061090A434D6B5C58
:100EF0004568DD4085603A4D6D6805F46051C90A6A
:100F00003E4D6B5C4568DD40C560354D6D6805F450
:100F10004041890B3A4D6B5CC568B5FBF3F5056143
:100F200030BD29B12E4A526902432D4B5A6104E06B
:100F30002B4A526982432A4B5A61704729B1284A89
:100F400092690243264B9A6104E0254A92698243E2
:100F5000234B9A61704729B1214AD2690243204B41
:100F6000DA6104E01E4AD26982431D4BDA617047A0
:100F700029B11B4AD2680243194BDA6004E0184ACF
:100F8000D2688243164BDA60704729B1144A12695D
:100F90000243134B1A6104E0114A12698243104B59
:100FA0001A61704712494039086070470F49C86498
:100FB00070470B49C87170470948406A40F080701B
:100FC00007494862704701460020054A92680A4076
:100FD0000AB1012000E00020704701498872704783
:100FE000001002400000FFF8FFFFF6FE0000424242
:100FF0008004424200127A0000093D0018000020DF
:101000002800002010B50446CC48844208D10121B4
:101010000420FFF7ADFF00210420FFF7A9FF46E001
:10102000C748844208D101210820FFF7A1FF002111
:101030000820FFF79DFF3AE0C248844208D1012111
:101040001020FFF795FF00211020FFF791FF2EE001
:10105000BD48844208D101212020FFF789FF0021EB
:101060002020FFF785FF22E0B848844208D1012103
:101070004020FFF77DFF00214020FFF779FF16E0B9
:10108000B348844208D101218020FFF771FF00217D
:101090008020FFF76DFF0AE0AE48844207D10121AE
:1010A0008015FFF765FF0021A015FFF761FF10BD58
:1010B00010B501210846FFF75BFF00210120FFF773
:1010C00057FF10BD2DE9F041024600250026002003
:1010D00000230024002791F803C00CF00F0591F8BD
:1010E00003C00CF0100CBCF1000F03D091F802C04B
:1010F0004CEA050591F800C0BCF1000F31D014682E
:1011000000202BE04FF0010C0CFA00F3B1F800C006
:101110000CEA03069E4220D183004FF00F0C0CFA1C
:1011200003F7BC4305FA03FC4CEA040491F803C03E
:10113000BCF1280F06D14FF0010C0CFA00FCC2F8EC
:1011400014C00AE091F803C0BCF1480F05D14FF07C
:10115000010C0CFA00FCC2F810C0401C0828D1D3C6
:101160001460B1F800C0BCF1FF0F34DD54680020FA
:101170002EE000F1080C4FF0010808FA0CF3B1F86A
:1011800000C00CEA03069E4221D183004FF00F0CF1
:101190000CFA03F7BC4305FA03FC4CEA040491F88B
:1011A00003C0BCF1280F05D100F1080C08FA0CF8B7
:1011B000C2F8148091F803C0BCF1480F07D100F1C8
:1011C000080C4FF0010808FA0CF8C2F81080401C17
:1011D0000828CED35460BDE8F0814FF6FF7101803E
:1011E000022181700421C17070470246002093687B
:1011F0000B400BB1012000E00020704701468868D9
:1012000080B2704702460020D3680B400BB101202A
:1012100000E0002070470146C86880B27047016155
:101220007047416170470AB1016100E04161704758
:10123000C16070474FF480320A43826181618261EC
:1012400082698269704702460020434B18684FF656
:101250008073184040EA021008433F4B1860704703
:101260003E49C8617047F0B50A46002300240021BA
:10127000002500F00046B6F1004F02D1364EF1696C
:1012800001E0354E7168C0F3034583B200F44016A7
:10129000B6F5401F08D121F070612F4E766826F018
:1012A00070662D4F7E6012E000F48016B6F5801F48
:1012B00006D1032606FA05F4A14341F0706106E069
:1012C000460D360103FA06F6B14341F0706122B1D2
:1012D000460D360103FA06F6314300F00046B6F13A
:1012E000004F02D11C4EF16101E01B4E7160F0BD58
:1012F00030B500228B071C0F0F2303FA04F2164BA4
:1013000008338C1053F824309343134C08348D1059
:1013100044F8253023468C1053F824308C07240FD2
:1013200000FA04F423430C4C08348D1044F82530A3
:1013300030BD0A49DC3108607047000000080140F8
:10134000000C014000100140001401400018014051
:10135000001C01400020014000000140000020422C
:1013600010B50446FE48844208D10121C014FFF79D
:10137000FFFD0021E014FFF7FBFDC4E0B4F1804F56
:1013800008D101210846FFF700FE00210120FFF7E8
:10139000FCFDB8E0F348844208D101210220FFF7A8
:1013A000F4FD00210220FFF7F0FDACE0EE4884429E
:1013B00008D101210420FFF7E8FD00210420FFF7F8
:1013C000E4FDA0E0E948844208D101210820FFF7AC
:1013D000DCFD00210820FFF7D8FD94E0E4488442BA
:1013E00008D101211020FFF7D0FD00211020FFF7C8
:1013F000CCFD88E0DF48844208D101212020FFF79E
:10140000C4FD00212020FFF7C0FD7CE0DA488442C3
:1014100008D101214014FFF7ABFD00216014FFF754
:10142000A7FD70E0D548844209D10121C804FFF727
:101430009FFD00214FF40020FFF79AFD63E0D048A4
:10144000844209D101210805FFF792FD00214FF4E4
:101450008010FFF78DFD56E0CA48844209D1012172
:101460004805FFF785FD00214FF40010FFF780FDD0
:1014700049E0C548844208D101214020FFF785FD9D
:1014800000214020FFF781FD3DE0C048844208D1A3
:1014900001218020FFF779FD00218020FFF775FDF5
:1014A00031E0BB48844208D101218015FFF76DFD72
:1014B0000021A015FFF769FD25E0B648844209D157
:1014C00001210804FFF754FD00214FF48030FFF79D
:1014D0004FFD18E0B048844209D101214804FFF7CC
:1014E00047FD00214FF40030FFF742FD0BE0AB4811
:1014F000844208D101218804FFF73AFD00214FF40E
:101500008020FFF735FD10BD00220288944B9842E1
:101510000ED0994B98420BD0B0F1804F08D0914B30
:10152000984205D0904B984202D0904B984204D1FB
:101530004FF68F731A404B881A438D4B984207D051
:101540008C4B984204D04FF6FF431A40CB881A4385
:1015500002808B8883850B880385814B98420BD052
:10156000854B984208D08B4B984205D08A4B9842C5
:1015700002D08A4B984201D10B7A038601238382E1
:10158000704770B5002400220023058C4FF6FE76CC
:1015900035400584028C8388048B4FF68F752C4070
:1015A000B51E2C400D882C43751E2A400D892A43F8
:1015B0004D882A436A4DA8420BD06F4DA84208D0EF
:1015C000744DA84205D0744DA84202D0734DA84274
:1015D00013D14FF6F7752A404D892A434FF6FB7514
:1015E0002A408D882A434FF6FF652B404FF6FF5562
:1015F0002B408D892B43CD892B4383800483CD8859
:101600008586028470BD70B5002400220023058CFD
:101610004FF6EF7635400584028C8388048B48F6BC
:10162000FF752C404FF6FF452C400D884FF6FF7696
:1016300006EA05252C434FF6DF752A400D8906EA98
:1016400005152A434D8806EA05152A43444DA8424C
:1016500002D0494DA8421DD14FF67F752A404D89D1
:101660004FF6FF7606EA05152A434FF6BF752A4066
:101670008D8806EA05152A434FF6FF352B404FF2B9
:10168000FF752B408D8906EA85052B43CD8906EA37
:1016900085052B4383800483CD880587028470BD34
:1016A00070B5002400220023058C4FF6FF663540FC
:1016B0000584028C8388848B4FF68F752C404FF6FF
:1016C000FC752C400D882C434FF6FF552A400D89A0
:1016D0004FF6FF7606EA05252A434D8806EA0525DA
:1016E0002A431F4DA84202D0234DA8421DD14FF2DC
:1016F000FF752A404D894FF6FF7606EA05252A43F5
:101700004FF6FF352A408D8806EA05252A434EF616
:10171000FF752B404DF6FF752B408D8906EA0515A8
:101720002B43CD8906EA05152B4383808483CD881E
:101730008587028470BD70B5002200230024058CCB
:101740004EF6FF7635400584038C8488828B48F6FC
:10175000FF752A404FF6FF452A400D8820E0000023
:10176000002C01400004004000080040000C004034
:10177000001000400014004000340140004C0140C3
:10178000005001400054014000180040001C00407F
:10179000002000400040014000440140004801405A
:1017A0004FF6FF7606EA05252A434DF6FF752B40D6
:1017B0000D8906EA05352B434D8806EA05352B438E
:1017C000FA4DA84202D0FA4DA84208D14BF6FF7557
:1017D0002C408D894FF6FF7606EA85152C438480D0
:1017E0008283CD88A0F84050038470BD828B4FF275
:1017F000FF331A408283828B4FF6FF7303EA012383
:101800001A4382837047F0B50C461546002200212A
:101810000026078C4EF6FF7C07EA0C070784828BB4
:10182000018C4FF6FF7707EA043640F6FF473A404F
:101830004FF6FF7707EA05273A434FF6FF7707EAA7
:1018400003373A43D94FB8420ED0D94FB8420BD0E4
:10185000B0F1804F08D0D74FB84205D0D64FB8422C
:1018600002D0D64FB84206D14DF6FF77394046F444
:101870008057394305E047F6FF57394044F4805715
:10188000394382830184F0BD828B4FF6F3731A4093
:101890008283828B0A4382837047F0B50C461546DB
:1018A000002200210026078C4FF6FF6C07EA0C0788
:1018B0000784828B018C4FF6FF7707EA04264FF6E8
:1018C0000C773A404FF6FF7707EA03172F433A4366
:1018D000B64FB8420ED0B64FB8420BD0B0F1804FE1
:1018E00008D0B44FB84205D0B34FB84202D0B34F7E
:1018F000B84206D14FF6FF57394046F48077394356
:1019000005E04FF2FF57394044F480773943828332
:101910000184F0BD028B4FF2FF331A400283028B29
:101920004FF6FF7303EA01231A4302837047F0B5B1
:101930000C461546002200210026078C4FF6EF7C4E
:1019400007EA0C070784028B018C4FF6FF7707EA42
:10195000041640F6FF473A404FF6FF7707EA033791
:101960003A434FF6FF7707EA05273A438F4FB842CD
:101970000ED08F4FB8420BD0B0F1804F08D08D4FB2
:10198000B84205D08C4FB84202D08C4FB84206D135
:101990004FF6DF77394046F01007394305E04FF640
:1019A0005F77394044F01007394302830184F0BD6A
:1019B000028B4FF6F3731A400283028B0A430283B1
:1019C0007047F0B50C46154600220021068C4FF6F4
:1019D000FE773E400684028B018C4FF60C76324037
:1019E0007E1C06EA03162E433243704EB0420ED0E0
:1019F0006F4EB0420BD0B0F1804F08D06D4EB04268
:101A000005D06D4EB04202D06C4EB04206D14FF6BA
:101A1000FD76314044F00106314305E04FF6F5769E
:101A2000314044F00106314302830184F0BD70B5BA
:101A300005460C465D4885420ED05D4885420BD078
:101A4000B5F1804F08D05B48854205D05A488542A1
:101A500002D05A48854200D100E000BF208850B92A
:101A60002389A28861882846FFF7ABFFE1882846D2
:101A7000FFF79EFF25E0208804280AD12389A28849
:101A800061882846FFF753FFE1882846FFF742FFA9
:101A900017E0208808280AD12389A288618828466F
:101AA000FFF7FBFEE1882846FFF7EEFE09E02389F9
:101AB000A28861882846FFF7A6FEE1882846FFF73E
:101AC00095FE70BD2DE9F04105460C460026012724
:101AD000608808B9022600E00026A088012801D10C
:101AE000022700E001272088A0B92389A288618805
:101AF0002846FFF766FFE1882846FFF759FF23894C
:101B00003A4631462846FFF712FFE1882846FFF79C
:101B100001FF13E02389A28861882846FFF707FFA9
:101B2000E1882846FFF7F6FE23893A4631462846E3
:101B3000FFF747FFE1882846FFF73AFFBDE8F0814D
:101B40000A884B881A438B881A43CB881A430B891F
:101B50001A434B891A438B891A43A0F844207047D3
:101B60004FF6FF71818000210180C18041800172A8
:101B700070470021018041808180C18001814181C5
:101B80008181C181704700210180418001218180D4
:101B90000021C18001817047002101804180818046
:101BA000C18001814181818170470000002C01408A
:101BB000003401400004004000080040000C0040D8
:101BC00021B1028842F00102028004E002884FF64F
:101BD000FE731A400280704731B1B0F8442042F4DD
:101BE0000042A0F8442005E0B0F84420C2F30E0201
:101BF000A0F8442070471AB183890B43838102E027
:101C000083898B43838170478182704741EA020355
:101C1000A0F8483070471AB183890B43838102E0F2
:101C200083898B438381704701894FF6F872114095
:101C3000018170470A46002101894FF68F731940D0
:101C400011430181704730B504460D4629462046B0
:101C5000FFF7F0FF208940F00700208130BD2DE91B
:101C6000F04104460D4616461F46602D06D13B4600
:101C7000012231462046FFF75AFE05E03B4601228D
:101C800031462046FFF79DFE29462046FFF7D2FF4A
:101C9000208940F007002081BDE8F08130B50C4676
:101CA00000210189C9B24FF6FF7505EA03251543E6
:101CB00025432943018130BD2DE9F04105460E46FB
:101CC00017469846002443463A4631462846FFF7D1
:101CD000E5FF2C894FF6F870044044F007044FF6F6
:101CE0008F70044044F070042C81BDE8F081F0B5A1
:101CF00004460D4616461F463B46324629462046B8
:101D0000FFF7CCFF208940F480402081F0BD0185A1
:101D1000828270470A46002101884FF68F7319406E
:101D2000114301807047F0B50C4615461E46002150
:101D3000002200230189028B038C4FF6F87739408B
:101D400021434FF6FC473A4040F201173A434FF621
:101D5000DD773B404FF6FF7707EA06172F433B43FB
:101D6000018102830384F0BD0A460021018B4FF6F6
:101D70008F7319401143018370470A460021018B7C
:101D800048F6FF7319404FF6FF7303EA0223194325
:101D9000018370470A460021818B4FF68F731940EB
:101DA0001143818370470A460021818B48F6FF73F7
:101DB00019404FF6FF7303EA0223194381837047EA
:101DC00021B1028842F08002028004E002884FF6CE
:101DD0007F731A400280704721B1828842F004026A
:101DE000828004E082884FF6FB731A40828070473D
:101DF00021B1828842F00802828004E082884FF696
:101E0000F7731A408280704721B1828842F0010244
:101E1000828004E082884FF6FE731A408280704709
:101E20000A460021018B4FF6F773194011430183D5
:101E300070470A460021018B4FF2FF7319404FF69D
:101E4000FF7303EA02231943018370470A46002106
:101E5000818B4FF6F77319401143818370470A460F
:101E60000021818B4FF2FF7319404FF6FF7303EA95
:101E700002231943818370470A460021018B4FF6E4
:101E8000FB7319401143018370470A460021018BFF
:101E90004FF6FF3319404FF6FF7303EA022319434D
:101EA000018370470A460021818B4FF6FB7319406E
:101EB0001143818370470A460021818B4FF6FF331F
:101EC00019404FF6FF7303EA0223194381837047D9
:101ED0000A460021018B4FF67F731940114301839D
:101EE00070470A460021018BC1F30E014FF6FF73C4
:101EF00003EA02231943018370470A460021818BBC
:101F00004FF67F7319401143818370470A460021C1
:101F1000818BC1F30E014FF6FF7303EA02231943CD
:101F2000818370470A460021018C4FF6FD731940EA
:101F30001143018470470A460021018C4FF6F77364
:101F400019401143018470470A460021018C4FF665
:101F5000DF7319404FF6FF7303EA0213194301843C
:101F600070470A460021018C4FF67F7319404FF6E7
:101F7000FF7303EA02131943018470470A460021E4
:101F8000018C4FF6FF5319404FF6FF7303EA02230B
:101F90001943018470470A460021018C4FF2FF73F8
:101FA00019404FF6FF7303EA022319430184704777
:101FB0000A460021018C4DF6FF7319404FF6FF735E
:101FC00003EA023319430184704730B5002301242A
:101FD0008C40A3B2048C9C430484048C02FA01F567
:101FE000ADB22C43048430BD30B5002304248C40B2
:101FF000A3B2048C9C430484048C02FA01F5ADB2B4
:102000002C43048430BD70B50346002000241846DC
:10201000183001258D40ACB21D8CA5431D8409B13B
:10202000082909D100EB6100056825F070050560FD
:102030000568154305600EE00D1FC5F34E052844E5
:10204000056825F4E045056005684FF6FF7606EA69
:1020500002263543056070BD21B1028842F00202BC
:10206000028004E002884FF6FD731A400280704738
:1020700021B1028842F00402028004E002884FF697
:10208000FB731A400280704721B1828842F08002BF
:10209000828004E082884FF67F731A408280704706
:1020A00002884FF6F7731A40028002880A430280C2
:1020B000704782884FF68F731A40828082880A4365
:1020C0008280704702894FF6F8731A4002810289B4
:1020D0000A430281704702894FF67F731A400281DA
:1020E00002890A4302817047818470478185704765
:1020F000818670470187704781877047A0F840103C
:10210000704702884FF6FF431A40028002880A4354
:10211000028070470146888E70470146088F7047DD
:102120000146888F70470146B1F84000704701466C
:10213000888C70470146088D704702460020138A3C
:102140000B400BB1012000E000207047CA4302821F
:10215000704730B50246002000230024158A05EAA6
:102160000103958905EA010413B10CB1012000E0D7
:10217000002030BDCA4302827047000010B500F055
:102180008DF8001D10BD00BF010300000FB41CB589
:10219000074B06AA7B4469460090059800F0E1F8D9
:1021A0000020694600F0F0F81CBC5DF814FB00004C
:1021B000F10100002DE9F0410E46044600202062A6
:1021C0002046E168884730B3252805D0D4E90121AD
:1021D0009047206A401CF2E7E168204600278847C4
:1021E000050018D0A5F14100192802D820354FF478
:1021F00000673246294620462760FDF7B1FF40B10F
:10220000012804D0F61D26F007060836D8E7361D4B
:10221000D6E72846DAE7206ABDE8F0812DE9F041EB
:102220000646002410687529314616A510D0AFF374
:102230000080002802DA404213A507E031688A07CF
:1022400001D512A502E0490704D511A5012401E03A
:10225000AFF3008000210A2206F1240709E0B0FB59
:10226000F2FCB0FBF2F302FB1C003030785418464D
:10227000491C0028F3D123462A463046BDE8F041E8
:1022800000F010B8000000002D0000002B0000003E
:1022900020000000704770477047000000487047FA
:1022A0004C0000202DE9F0470D4699469246044621
:1022B00000F124080168880604D5E06921F01001C6
:1022C000216000E00120A84201DD471B00E000275B
:1022D000A1697A1902EB0900081AA0612078C006EA
:1022E00002D42046AFF30080002608E0D4E90121A3
:1022F0001AF806009047206A401C761C20624E4562
:10230000F4DB2078C0060AD52046AFF3008006E053
:10231000D4E9012130209047206A401C2062381EF9
:10232000A7F10107F4DC07E0D4E9012118F8050062
:102330009047206A401C2062281EA5F10105F3DCAD
:102340002046AFF300802078000602D50220BDE8C9
:10235000F0870120FBE7000001694A1C0261087850
:10236000704700B58FB0CDE90131002105910549D5
:102370007944CDE9031011466846FFF71BFF0FB003
:1023800000BD0000E5FFFFFF0A6802F8010B0A60CC
:1023900070470000004870472C0000204FF0013CBF
:1023A00050F8042B51F8043B9A4221D1A2EB0C03C4
:1023B000934313EACC1317D150F8042B51F8043B84
:1023C0009A4215D1A2EB0C03934313EACC130BD121
:1023D00050F8042B51F8043B9A4209D1A2EB0C03AC
:1023E000934313EACC13DBD04FF00000704700BFDB
:1023F000D01A01BAB1FA81F101F0180122FA01F004
:10240000CB40C1F12001DBB2C0B2C01A2CFA01F3FB
:10241000D11A914311EAC311E6D170477546FFF70F
:10242000B9FFAE4605006946534620F007008546D1
:1024300018B020B5FEF702FCBDE820404FF00006C2
:102440004FF000074FF000084FF0000B21F007019C
:10245000AC46ACE8C009ACE8C009ACE8C009ACE8DF
:10246000C0098D46704710B50446AFF30080204682
:10247000BDE81040FDF78FBE01491820ABBEFEE756
:10248000260002007047000010B500290AD0087825
:10249000002807D005487844FFF780FF002801D0C6
:1024A000002010BD0248784410BD00003E0000002E
:1024B00036000000E4250008000000202C00000089
:1024C00028010008102600082C00002064060000E7
:1024D000440100081001000043000000F8FFFFFF66
:1024E0000040404040404040404041414141414027
:1024F00040404040404040404040404040404040DC
:10250000400502020202020202020202020202026A
:10251000022020202020202020202002020202026F
:1025200002029090909090901010101010101010C7
:1025300010101010101010101010101002020202D3
:102540000202888888888888080808080808080817
:102550000808080808080808080808080202020213
:10256000400000000000000000000000000000002B
:10257000000000000000000000000000000000005B
:10258000000000000000000000000000000000004B
:10259000000000000000000000000000000000003B
:1025A000000000000000000000000000000000002B
:1025B000000000000000000000000000000000001B
:1025C000000000000000000000000000000000000B
:1025D00000000000000000000000000000000000FB
:1025E0000000000000A24A040000000000000000FB
:1025F00001020304060708090000000000000000B3
:102600000102030401020304060708090204060884
:04000005080000ED02
:00000001FF
